:020000040001F9
:10C00000F85900208DC4010095C4010097C40100B7
:10C0100099C401009BC401009DC401000000000000
:10C020000000000000000000000000009FC40100AC
:10C030000000000000000000A1C40100A3C4010032
:10C04000A5C40100A5C4010015E70100A5C40100B5
:10C05000A5C40100A5C40100D9C60100A5C4010002
:10C06000A5C40100A5C40100A5C40100A5C4010028
:10C07000A5C40100A5C40100A5C40100A5C4010018
:10C08000A5C4010029D00100A5C40100A5C4010078
:10C09000CBE40100A5C40100D5E40100A5C4010062
:10C0A000A5C40100A5C40100A5C40100A5C40100E8
:10C0B000A5C40100A5C401000000000000000000AC
:10C0C000A5C40100A5C40100A5C40100A5C40100C8
:10C0D000A5C40100A5C4010000000000000000008C
:10C0E0000000000000000000000000000000000050
:10C0F0000000000000000000000000000000000040
:10C10000000000000000000000000000000000002F
:10C11000000000000000000000000000000000001F
:10C40000DFF80CD000F0E6F8004800479D76020007
:10C41000F8590020401E00BF00BF00BF00BF00BF92
:10C4200000BF00BF00BF00BF00BF00BF00BF00BF14
:10C4300000BF00BF00BF00BF00BF00BF00BF00BF04
:10C4400000BF00BF00BF00BF00BF00BF00BF00BFF4
:10C4500000BF00BF00BF00BF00BF00BF00BF00BFE4
:10C4600000BF00BF00BF00BF00BF00BF00BF00BFD4
:10C4700000BF00BF00BF00BF00BF00BF00BF00BFC4
:10C4800000BF00BF00BFC5D170470000064880470D
:10C4900006480047FEE7FEE7FEE7FEE7FEE7FEE7A9
:10C4A000FEE7FEE7FEE700001DE5010001C4010014
:10C4B0002DE9F05F0546002092469B4688460646D9
:10C4C000814640241BE0284641464746224600F06C
:10C4D00020F853465A46C01A914110D311461846C7
:10C4E000224600F067F82D1A67EB01084F462246F6
:10C4F0000120002100F05EF817EB00094E41201EDC
:10C50000A4F10104DFDC484631462A464346BDE833
:10C51000F09F202A04DB203A21FA02F00021704724
:10C5200021FA02F3D040C2F120029140084319469B
:10C53000704740EA01039B0703D009E008C9121FB6
:10C5400008C0042AFAD203E011F8013B00F8013BCD
:10C55000521EF9D27047D2B201E000F8012B491EF9
:10C56000FBD270470022F6E710B513460A46044690
:10C570001946FFF7F0FF204610BD421C10F8011BC2
:10C580000029FBD1801A704730B5044600200346CD
:10C5900000E05B1C934203D2E05CCD5C401BF8D012
:10C5A00030BD034611F8012B00F8012B002AF9D108
:10C5B00018467047202A04DB203A00FA02F10020D6
:10C5C00070479140C2F1200320FA03F319439040D1
:10C5D00070470000064C074D06E0E06840F001039C
:10C5E00094E8070098471034AC42F6D3FFF70CFFED
:10C5F00014AE020034AE020070B58C1810F8015B66
:10C6000015F0070301D110F8013B2A1106D110F8EB
:10C61000012B03E010F8016B01F8016B5B1EF9D1EF
:10C620002B0705D40023521E0DD401F8013BFAE775
:10C6300010F8013BCB1A921C03E013F8015B01F8E0
:10C64000015B521EF9D5A142D8D3002070BD000075
:10C6500070B505460E4614462946204600F032F8CD
:10C66000044804600448066000F0F4FB00F010F990
:10C6700070BD0000402200204422002010B5024678
:10C68000002018E0002112E0130103EB80030B44AB
:10C690000A4CE35C0A4C246804EB8004645C63404D
:10C6A000074C246804EB800463544B1CD9B2042962
:10C6B000EADB431CD8B20428E4DB10BD4439002077
:10C6C000402200200246002003E00B5C1354431C70
:10C6D000D8B21028F9DB70472DE9F04F87B000275A
:10C6E000BA464FF4807006900125002412E00698A7
:10C6F0000BF096FA40B100BF60480068284018B1BE
:10C7000006980BF07FFA2F436D000698001D80B24B
:10C710000690641C082CEAD34FF4BE700BF080FA2C
:10C7200048B14FF4BE700BF06DFA47F0004700BF00
:10C73000534800688246F8B2F8B1012500241AE097
:10C7400005EA0700A8B100BF4E4850F82400C0F326
:10C750000420064600BF4B4850F82400C0F30140B7
:10C760008046204605F03CF9814641463046C847A0
:10C7700000BF6D00641C082CE2D307F000400028C5
:10C7800079D04FF0000B00200590401E049000BFB0
:10C790004FF0000B002457E03B48005D03900398E6
:10C7A00020F0C00638480057401C00284BD001201C
:10C7B000B04004990840002845D003984FEA9019EA
:10C7C000304605F055F9804605F00AF902900298C6
:10C7D00010B9B9F1030F35D1012000FA06F5B9F10E
:10C7E000030F02D105982843059000BF274850F851
:10C7F0002600C0F3014800BF05EA0A0010B1B8F1F5
:10C80000020F05D005EA0A00D8B9B8F1030F18D114
:10C81000B9F1030F0FD1B8F1020F01D1032000E0ED
:10C8200002200190304601990BF0D4F90BF1010080
:10C8300000F0FF0B00BF029818B149463046029A3B
:10C84000904700BF00BF641C042CA5D3BBF1000FB0
:10C850000DD000BF0A4909680846504503D14FF082
:10C86000000B03E007E082460599049100BFBBF18D
:10C87000000F8DD100BF07B0BDE8F08F046300400A
:10C88000100500501065004074280020000700507B
:10C8900010B500240A20FFF7F1FE09240AE000F099
:10C8A00071FA00F0BBFA2046FFF7E8FE00F00CF842
:10C8B000601EC4B2002CF2DC00F064FA00F0AEFAA4
:10C8C0000020FFF7DBFE10BD30B589B000200890D6
:10C8D00050E2FE480168089811F820000790FB48D4
:10C8E0000168089801EB800040780690F7480168DD
:10C8F000089801EB800080780590F448016808985A
:10C9000001EB8000C078049007980DF065FD0446A7
:10C9100007980DF061FD03900DF05EFD444007980F
:10C920000DF05AFD02900DF057FD03900DF054FDEF
:10C93000444007980DF050FD01900DF04DFD029020
:10C940000DF04AFD03900DF047FD06980DF044FDF3
:10C950000546069845400DF03FFD03900DF03CFD67
:10C9600006980DF039FD02900DF036FD03900DF0A4
:10C9700033FD454006980DF02FFD01900DF02CFD84
:10C9800002900DF029FD03900DF026FD6C400598F6
:10C990000DF022FD059805460DF01EFD03900DF0EB
:10C9A0001BFD454005980DF017FD02900DF014FD9C
:10C9B00003900DF011FD454005980DF00DFD01901F
:10C9C0000DF00AFD02900DF007FD03900DF004FD3F
:10C9D0006C4004980DF000FD049805460DF0FCFC39
:10C9E00003900DF0F9FC04980DF0F6FC02900DF0A8
:10C9F000F3FC03900DF0F0FC454004980DF0ECFCC6
:10CA000001900DF0E9FC02900DF0E6FC03900DF0B2
:10CA1000E3FC6C40AD480168089801F82040079895
:10CA20000DF0DAFC079804460DF0D6FC03900DF0EB
:10CA3000D3FC07980DF0D0FC02900DF0CDFC0390D4
:10CA40000DF0CAFC444007980DF0C6FC01900DF0B3
:10CA5000C3FC02900DF0C0FC03900DF0BDFC0698E5
:10CA60000DF0BAFC054606980DF0B6FC03900DF0EB
:10CA7000B3FC454006980DF0AFFC02900DF0ACFC05
:10CA800003900DF0A9FC454006980DF0A5FC01901F
:10CA90000DF0A2FC02900DF09FFC03900DF09CFCA9
:10CAA0006C4005980DF098FC0546059845400DF042
:10CAB00093FC03900DF090FC05980DF08DFC029016
:10CAC0000DF08AFC03900DF087FC454005980DF0B1
:10CAD00083FC01900DF080FC02900DF07DFC039032
:10CAE0000DF07AFC6C4004980DF076FC0498054635
:10CAF0000DF072FC03900DF06FFC454004980DF0B2
:10CB00006BFC02900DF068FC03900DF065FC454055
:10CB100004980DF061FC01900DF05EFC02900DF0A8
:10CB20005BFC03900DF058FC6C4068480168089865
:10CB300001EB8000447007980DF04EFC0798044606
:10CB40000DF04AFC03900DF047FC444007980DF0AF
:10CB500043FC02900DF040FC03900DF03DFC44407E
:10CB600007980DF039FC01900DF036FC02900DF0A5
:10CB700033FC03900DF030FC06980DF02DFC069868
:10CB800005460DF029FC03900DF026FC06980DF0EB
:10CB900023FC02900DF020FC03900DF01DFC45409D
:10CBA00006980DF019FC01900DF016FC02900DF0A6
:10CBB00013FC03900DF010FC6C4005980DF00CFC7C
:10CBC000054605980DF008FC03900DF005FC454066
:10CBD00005980DF001FC02900DF0FEFB03900DF0A6
:10CBE000FBFB454005980DF0F7FB01900DF0F4FBC1
:10CBF00002900DF0F1FB03900DF0EEFB6C400498F9
:10CC00000DF0EAFB0546049845400DF0E5FB039066
:10CC10000DF0E2FB04980DF0DFFB02900DF0DCFB61
:10CC200003900DF0D9FB454004980DF0D5FB019021
:10CC30000DF0D2FB02900DF0CFFB03900DF0CCFB7A
:10CC40006C4022480268089802EB800084700798C4
:10CC50000DF0C2FB0446079844400DF0BDFB039065
:10CC60000DF0BAFB07980DF0B7FB02900DF0B4FB86
:10CC700003900DF0B1FB444007980DF0ADFB01901F
:10CC80000DF0AAFB02900DF0A7FB03900DF0A4FBA2
:10CC900006980DF0A1FB069805460DF09DFB03904C
:10CCA0000DF09AFB454006980DF096FB02900DF0B2
:10CCB00093FB03900DF090FB454006980DF08CFB24
:10CCC00001900DF089FB029002E00000402200205C
:10CCD0000DF082FB03900DF07FFB6C4005980DF08A
:10CCE0007BFB059805460DF077FB03900DF074FB78
:10CCF00005980DF071FB02900DF06EFB03900DF0A6
:10CD00006BFB454005980DF067FB01900DF064FB4F
:10CD100002900DF061FB03900DF05EFB6C400498F7
:10CD20000DF05AFB054604980DF056FB03900DF0EC
:10CD300053FB454004980DF04FFB02900DF04CFB67
:10CD400003900DF049FB454004980DF045FB019020
:10CD50000DF042FB02900DF03FFB03900DF03CFB09
:10CD60006C4007480268089802EB8000C47008987D
:10CD7000401C089008980428FFF6ABAD09B030BD00
:10CD80004022002024490968487B234909684A7ADF
:10CD9000214909684A73204909684A791E49096886
:10CDA0004A721D4909684A781B4909684A711A493B
:10CDB0000968487018490968887817490968897AA4
:10CDC000154A1268917014490968887212490968F5
:10CDD0008879114909688A7B0F4909688A710E4967
:10CDE000096888730C490968C8780B490968C979CA
:10CDF000094A1268D17008490968CA7A064909685F
:10CE0000CA7105490968CA7B03490968CA7202499F
:10CE10000968C873704700004022002070B50024E4
:10CE200013E000250DE00A49096801EB8501085D62
:10CE300009F004FF0649096801EB85010855681CE3
:10CE4000C5B2042DEFDB601CC4B2042CE9DB70BD5D
:10CE500040220020F8B5002429E0002000EB8400E7
:10CE600052490968085C002101EB8401504A505482
:10CE7000012000EB84004D490968085C012101EBA9
:10CE800084015054022000EB840048490968085C82
:10CE9000022101EB84015054032000EB840043493C
:10CEA0000968085C032101EB84015054641C042CC4
:10CEB000D3D378E0002507E0601E05EB80003C49F5
:10CEC000085C0DF805006D1C042DF5D304F003007B
:10CED00088BB9DF800609DF801008DF800009DF86A
:10CEE00002008DF801009DF803008DF802008DF816
:10CEF00003609DF8000009F0A7FE8DF800009DF882
:10CF0000010009F0A1FE8DF801009DF8020009F072
:10CF10009BFE8DF802009DF8030009F095FE8DF848
:10CF200003009DF80000234901EB94010978484073
:10CF30008DF8000001E0FFE700BF201F002101EB9A
:10CF400080001B49085C9DF800104840002101EB5F
:10CF50008401174A5054201F012101EB8000114623
:10CF6000085C9DF801104840012101EB84015054F8
:10CF7000201F022101EB80001146085C9DF8021081
:10CF80004840022101EB84015054201F032101EB92
:10CF900080001146085C9DF803104840032101EB16
:10CFA00084015054641C2C2C84D3F8BD44220020EE
:10CFB00044390020C0AC020000F01F020121914062
:10CFC000024A430942F823107047000080E200E063
:10CFD00000F01F02012191404209920002F1E0227B
:10CFE000C2F800117047000000F01F0201219140BB
:10CFF000024A430942F823107047000000E200E0B3
:10D0000010B5002807DA4A07140E054A00F00F038E
:10D010001B1FD45403E04A07130E024A135410BDD9
:10D0200018ED00E000E400E010B5002009490860B8
:10D0300000210948C0F84411C0F84811C0F84C114B
:10D0400000200549C1F8000102493C3908600CF094
:10D050007FFD10BD40110140001001402DE9F04757
:10D0600004460E4617469846DDF8209000BF1F483C
:10D07000007808B901F00CFC00BF1C484069A042D0
:10D080002ED900BF0CB304EB44011848483040F8D7
:10D09000316004EB440100EBC100476004EB440144
:10D0A0001248483000EBC100C0F80880002104EBB2
:10D0B00044020E48483000EBC200016104EB440218
:10D0C0000A48483000EBC200C16004EB4401074845
:10D0D000483000EBC100C0F8149000BF002501E00B
:10D0E0004FF0FF352846BDE8F087000044320020AD
:10D0F0002DE9F04704460E4617469846DDF8209085
:10D1000000BF1F48007808B901F0C2FB00BF1C48EF
:10D110000069A0422ED900BF0CB304EB44011848AB
:10D12000183040F8316004EB440100EBC100476067
:10D1300004EB44011248183000EBC100C0F808802D
:10D14000002104EB44020E48183000EBC2000161DC
:10D1500004EB44020A48183000EBC200C16004EB43
:10D1600044010748183000EBC100C0F8149000BF1C
:10D17000002501E04FF0FF352846BDE8F0870000AC
:10D18000443200202DE9F04104460D46164600BF0A
:10D190000848007808B901F07BFB00BF00BF3246A9
:10D1A0002946204600F008F8074600BF3846BDE88B
:10D1B000F0810000443200202DE9F0470746884600
:10D1C0001646C24607EB47011B4800EBC109D9F8D8
:10D1D000140020B1012811D0022826D11EE04846B3
:10D1E00001F08EFB0546B54201D2002405E034462D
:10D1F00032465146484601F0D8FC18E0484601F056
:10D200007FFB0546B54201D2284600E03046044681
:10D2100022465146484601F0C8FC08E032465146D5
:10D22000484601F089FC044601E0002400BF00BF2D
:10D230002046BDE8F08700005C3200200FB438B50E
:10D24000044606A800906A462046059900F003F8B7
:10D2500038BC5DF814FB2DE9F04F99B082460D46BD
:10D26000144603A814904020159000201690CDF885
:10D2700060A0179000BF2E786D1C06B9DDE0252E4A
:10D2800079D100274FF0010900BF2E78232E12D04C
:10D290002B2E0CD02D2E02D0302E10D103E047F0D3
:10D2A00001076D1C0EE047F002076D1C0AE047F015
:10D2B00004076D1C06E047F008076D1C02E04FF004
:10D2C000000900BF00BFB9F1000FDED14FF0000828
:10D2D00000BF2E78302E01DB392E00DD07E06D1CFB
:10D2E000A6F1300008EB880100EB4108F1E700BF30
:10D2F000002013902E782E2E12D16D1C00BF2E7898
:10D30000302E01DB392E00DD09E06D1CA6F1300066
:10D31000139901EB810100EB41001390EFE700BF8F
:10D320002E7800BF6C2E01D0682E02D12E786D1C95
:10D3300000E000E0F6E700BF702E5DD008DC252E8F
:10D340006AD0582E35D0632E09D0642E69D113E0EF
:10D35000732E3CD0752E1DD0782E62D128E0216826
:10D36000081D2060D1F8009009F0FF0B594614A861
:10D3700001F0C0FB56E058E02168081D2060D1F89C
:10D380000090CDE900870A22494614A8139B01F0BA
:10D39000C5FA47E02168081D2060D1F80090CDE96A
:10D3A00000870A22494614A8139B01F02DFB39E09F
:10D3B00000BF2168081D2060D1F80090CDE90087EA
:10D3C0001022494614A8139B01F01EFB2AE0216895
:10D3D000081D2060D1F800B000BF9BF800600BF181
:10D3E000010B06B906E0314614A801F083FB17983B
:10D3F0000028F2DA00BF15E02168081D2060D1F88E
:10D400000090002008210B461022CDE9001049466B
:10D4100014A801F0F9FA05E0252114A801F06AFB2F
:10D4200000E000BF00BF6D1C03E0314614A801F00E
:10D4300061FB17980028BFF61EAF00BF17980028A1
:10D440000ADD169820B103A95046169AFFF79AFEF6
:10D45000DDE9161008441790179819B0BDE8F08F51
:10D4600070B504460E463146204600F051F80025BE
:10D4700004E0002104F11E0041556D1C402DF8DB35
:10D4800000206061A0610120206670BD70B5044677
:10D490000D4616460CB9012070BD0EB90020FBE701
:10D4A0000DB90120F8E7206E10B103206066F3E7A4
:10D4B000606E08B1606EEFE722E02978B4F91C20B5
:10D4C00090B2401C00B2A08304F11E0081540F49A9
:10D4D000A0690860A0690830A0610968884205D287
:10D4E0006069401C606108B9022000E0606E6066FF
:10D4F00028B9A08B402802D1204600F067F86D1CA7
:10D50000301EA6F10106D8D1606EC5E73C2100208F
:10D5100070B504460D46B4F91C0038281BDBB4F97D
:10D520001C1088B2401C00B2A08304F11E004554B8
:10D5300009E00021B4F91C2090B2401C00B2A08385
:10D5400004F11E008154B4F91C004028F1DB204690
:10D5500000F03CF808E0B4F91C1088B2401C00B29E
:10D56000A08304F11E00455409E00021B4F91C20F9
:10D5700090B2401C00B2A08304F11E008154B4F9A3
:10D580001C003828F1DB6069010E84F856106069D0
:10D59000010C84F85710A08A010A84F85810217DE4
:10D5A00084F85910A069010E84F85A10A069010C82
:10D5B00084F85B10208B010A84F85C10217E84F8CB
:10D5C0005D10204600F002F870BD00002DE9F04724
:10D5D000D4B00146DFF838A2DAE900C8DAE9029AE5
:10D5E000CDF840C151AAA2E80007002032E001F1C5
:10D5F0001E0C1CF820C04FEA0C6C4DF820C05DF8E2
:10D6000020804FF0010C0CEB800901F11E0C1CF87E
:10D6100009C048EA0C4C4DF820C05DF820804FF05E
:10D62000020C0CEB800901F11E0C1CF809C048EA41
:10D630000C2C4DF820C05DF820C04FF0030808EB1B
:10D64000800901F11E0818F809804CEA080C4DF811
:10D6500020C0401C1028CADB102032E0A0F1030CCF
:10D660005DF82CC0A0F108085DF828808CEA080C51
:10D67000A0F10E085DF828808CEA080CA0F11008D3
:10D680005DF828808CEA080C4FEA4C08A0F1030CE6
:10D690005DF82CC0A0F108095DF829908CEA090C0E
:10D6A000A0F10E095DF829908CEA090CA0F110098F
:10D6B0005DF829908CEA090C48EADC7C4DF820C022
:10D6C000401C5028CADB0B684A688C68CD680E691C
:10D6D00000201BE04FEA431C4CEAD36902EA040C29
:10D6E00025EA02088CEA080CCC44B4445DF820809A
:10D6F000C444DDF840810CEB08072E4625464FEA6E
:10D70000827C4CEA92041A463B46401C1428E1DB1A
:10D71000142019E04FEA431C4CEAD36882EA040C57
:10D720008CEA050CC444B4445DF82080C444DDF8A0
:10D7300044810CEB08072E4625464FEA827C4CEAD2
:10D7400092041A463B46401C2828E3DB28201FE0B1
:10D750004FEA431C4CEAD36802EA040C02EA0509CA
:10D760008CEA090C04EA05098CEA090CC444B444A7
:10D770005DF82080C444DDF848810CEB08072E4694
:10D7800025464FEA827C4CEA92041A463B46401CEE
:10D790003C28DDDB3C2019E04FEA431C4CEAD3680F
:10D7A00082EA040C8CEA050CC444B4445DF8208081
:10D7B000C444DDF84C810CEB08072E4625464FEAA1
:10D7C000827C4CEA92041A463B46401C5028E3DB1C
:10D7D000D1F800C09C44C1F800C0D1F804C0944402
:10D7E000C1F804C0D1F808C0A444C1F808C0D1F8F9
:10D7F0000CC0AC44C1F80CC0D1F810C0B444C1F89E
:10D8000010C04FF0000CA1F81CC054B0BDE8F08768
:10D810002CA70200014609B9012070470020886149
:10D820004861888308480860084848600648C04343
:10D8300088600648C043C860054808610020086643
:10D84000486600BFE9E700000123456789ABCDEFDB
:10D85000F0E1D2C370B504460E460CB9012070BD8C
:10D860000EB90120FBE7606E08B1606EF7E7206E2D
:10D8700018B980212046FFF7F3FD00250AE0A81023
:10D8800054F8200005F00301C1F10301C900C840AC
:10D8900070556D1C142DF2DB0020E0E770B50446D6
:10D8A0000D46164632462946204600F0F9F970BD6D
:10D8B00010B504460249204600F0AEF910BD000044
:10D8C0005421002070B504460D461C2229462046EE
:10D8D00000F0BFF970BD70B504460E4631462046D3
:10D8E00000F00FF8002504E0002104F12A00415562
:10D8F0006D1C402DF8DB0020206260620120E06694
:10D9000070BD70B504460D46B4F9280038281BDBFD
:10D91000B4F9281088B2401C00B2208504F12A0016
:10D92000455409E00021B4F9282090B2401C00B20F
:10D93000208504F12A008154B4F928004028F1DB45
:10D94000204600F03DF808E0B4F9281088B2401CE9
:10D9500000B2208504F12A00455409E00021B4F901
:10D96000282090B2401C00B2208504F12A00815486
:10D97000B4F928003828F1DB206A010E84F862101F
:10D98000206A010C84F86310208C010A84F864106A
:10D9900094F8201084F86510606A010E84F866100F
:10D9A000606A010C84F86710A08C010A84F8681082
:10D9B00094F8241084F86910204600F001F870BD36
:10D9C0002DE9F04FC4B04FF000084446414623E033
:10D9D00000F12A0818F804804FEA086A00F12A08C2
:10D9E00004F1010918F809804AEA084A00F12A08F6
:10D9F00004F1020918F809804AEA082800F12A0906
:10DA000004F1030A19F80A9048EA09080DF1080917
:10DA100049F82180491C241D1029D9DB102159E027
:10DA2000A1F102080DF1080959F828804FEA584978
:10DA3000A1F102080DF1080A5AF8288049EAC8380D
:10DA4000A1F102095AF829904FEAD94AA1F1020935
:10DA50000DF1080B5BF829904AEA493988EA090870
:10DA6000A1F10209DA465AF8299088EA9929A1F128
:10DA700007085AF82880C844A1F10F095AF82990DC
:10DA80004FEAD91AA1F10F091BF829904AEA49690E
:10DA9000A1F10F0A5BF82AA04FEA9A4BA1F10F0AF5
:10DAA0000DF1080E5EF82AA04BEA8A3A89EA0A09C3
:10DAB000A1F10F0AF3465BF82AA089EADA09C1440A
:10DAC000A1F11008DA465AF82880C844D14649F82E
:10DAD0002180491C4029A3DB026845688668D0F88C
:10DAE0000C80CDF8048003694769D0F818C0D0F8DD
:10DAF0001C80CDF80080002156E04FEA931848EAD8
:10DB000083684FEAD32949EA435988EA09084FEA6A
:10DB1000536949EAC31988EA0908DDF80090C1444D
:10DB200003EA07082CEA030A88EA0A08C844DFF86F
:10DB3000E49059F82190C8440DF1080959F8219052
:10DB4000C844CDF80C814FEA920848EA82784FEA3F
:10DB5000523949EAC24988EA09084FEA925949EA22
:10DB6000822988EA090902EA050802EA060A88EA1F
:10DB70000A0805EA060A88EA0A08C144CDF80891AD
:10DB8000CDF800C0BC461F46DDF80490DDF80C81DE
:10DB900009EB080301962E461546DDF80891DDF8DD
:10DBA0000C8108EB0902491C4029A6DBD0F8008053
:10DBB0009044C0F80080D0F80480A844C0F80480E5
:10DBC000D0F80880B044C0F80880D0F80C90DDF898
:10DBD0000480C844C0F80C80D0F810809844C0F885
:10DBE0001080D0F81480B844C0F81480D0F81880A1
:10DBF000E044C0F81880D0F81C90DDF80080C844DC
:10DC0000C0F81C804FF00008A0F8288044B0BDE8A0
:10DC1000F08F00003CA7020002460AB901207047BD
:10DC200000205062106210850868106048685060DB
:10DC300088689060C868D060086910614869506160
:10DC400088699061C869D0610020D066106700BF04
:10DC5000E5E72DE9F04104460E46174614B90120C8
:10DC6000BDE8F0810EB90120FAE7206F08B1206FFE
:10DC7000F6E7E06E18B980212046FFF72CFE00255C
:10DC80000AE0A81054F8200005F00301C1F10301D7
:10DC9000C900C84070556D1CBD42F2DB0020DFE7B3
:10DCA00070B504460D4616460CB9012070BD0EB97C
:10DCB0000020FBE70DB90120F8E7E06E10B103206A
:10DCC0002067F3E7206F08B1206FEFE722E02978A3
:10DCD000B4F9282090B2401C00B2208504F12A003B
:10DCE00081540F49606A0860606A083060620968A0
:10DCF000884205D2206A401C206208B9022000E058
:10DD0000206F206728B9208D402802D12046FFF7D8
:10DD100057FE6D1C301EA6F10106D8D1206FC5E755
:10DD20005021002010B5044602492046FFF774FF39
:10DD300010BD00007421002070B504460D4620225D
:10DD400029462046FFF785FF70BD70B504460D4695
:10DD5000164632462946204600F048FB70BD0000BA
:10DD600010B504460249204600F0ECFA10BD000050
:10DD7000B021002070B504460D46302229462046C9
:10DD800000F000FB70BD70B504460E4631462046DB
:10DD900000F013F8002505E0002104F15200415580
:10DDA000681C05B2802DF7DB0021A164E1642164C9
:10DDB00061640120C4F8D40070BD70B504460D46FE
:10DDC000B4F9500070281DDB34F9501F2088401C26
:10DDD00000B224F8500904F1520045540AE0002131
:10DDE00034F9502F2088401C00B224F8500904F167
:10DDF00052008154B4F950008028F0DB204600F036
:10DE00007BF809E034F9501F2088401C00B224F848
:10DE1000500904F1520045540AE0002134F9502F12
:10DE20002088401C00B224F8500904F152008154AB
:10DE3000B4F950007028F0DB606C010E84F8C21059
:10DE4000606C010C84F8C310B4F84400010A84F833
:10DE5000C41094F8441084F8C51094F844000202E9
:10DE6000216C42EA116084F8C60094F84400020470
:10DE7000216C42EA114084F8C700B4F8401094F8CD
:10DE80004400020642EA112084F8C80094F84010C9
:10DE900084F8C910E06C010E84F8CA10E06C010C23
:10DEA00084F8CB10B4F84C00010A84F8CC1094F834
:10DEB0004C1084F8CD1094F84C000202A16C42EA98
:10DEC000116084F8CE0094F84C000204A16C42EA80
:10DED000114084F8CF00B4F8480094F84C10000AC0
:10DEE00040EA016084F8D00094F8481084F8D1101A
:10DEF000204600F001F870BD2DE9F04FADF5317D01
:10DF000000263146B09665E000F15206B09FF65DFE
:10DF100037064FF0000C00F15208B09E761C18F83E
:10DF200006604FEA06484CEA0C0647EA080700F18B
:10DF30005208DDF8C0C20CF1020C18F80CC04FEA10
:10DF40000C29B44647EA0907B09EF61C18F806608B
:10DF5000B846674648EA060800F1520CB09E361DE6
:10DF60001CF806C00026360646EA1C2947EA0C665D
:10DF700048EA090C00F15208B09F7F1D18F807808D
:10DF800000273F0447EA184746EA08464CEA070CD0
:10DF900000F15208B09FBF1D18F8078000273F020C
:10DFA00047EA186946EA08274CEA090600F15208D0
:10DFB000DDF8C0C20CF1070C18F80CC047EA0C07DA
:10DFC0000DF1300C0CEBC10CCCE90076491CB09E75
:10DFD0000836B096102997DB102191E08E1E0CAF09
:10DFE00007EBC607C0CFF60C46EA4736FF0CA1F197
:10DFF000020C0DF1300858F83CC047EA4C37A1F14B
:10E00000020C08EBCC0CDCF804C04FEA5C79A1F1FF
:10E0100002080DF1300A0AEBC808D8E900A84FEA57
:10E02000C80848EA5A7B49EACA0886EA080C87EA1F
:10E030000B078E1E0DF1300808EBC608D8E9006802
:10E04000B60946EA88668CEA060C87EA9817CE1F5E
:10E050000DF1300808EBC608D8E900681CEB060E85
:10E0600047EB0808A1F10F060CAF07EBC606D6E98F
:10E07000007676084FEA3707A1F10F0C0DF1300951
:10E0800019F83CC046EACC76A1F10F0C09EBCC099B
:10E09000D9E900C94FEA1C2C4CEA096C4FEA19294E
:10E0A000A1F10F0A0DF1300B1BF83AA049EA0A69F9
:10E0B00087EA0C0786EA0906A1F10F0CD94609EB9D
:10E0C000CC09D9E900C94FEADC1C4CEA496C87EA63
:10E0D0000C0786EAD9161EEB070748EB0608A1F1E4
:10E0E0001006DC460CEBC606D6E900C617EB0C079B
:10E0F00048EB06080CAE06EBC106C6E90078491CE1
:10E100005029FFF66BAFD0E90045D0E90267CDE9B1
:10E110000A67D0E90467CDE90867D0E90667CDE969
:10E120000667D0E90823D0E90A67CDE90467D0E99A
:10E130000C67CDE90267D0E90E67CDE900670021E1
:10E14000AFE0960B46EA83464FEA933C4CEA824C9A
:10E15000970C47EA83374FEA934848EA823877407A
:10E160008CEA080C4FEA5328DE0546EA522B48EAAF
:10E17000C25687EA06098CEA0B06DDE9007C19EB3A
:10E18000070946EB0C06DDE9047C174003EA0C0C9A
:10E19000DDE9028E28EA020B2EEA030A87EA0B0762
:10E1A0008CEA0A0C19EB070846EB0C06644F07EBE8
:10E1B000C107D7E900C718EB0C087E410CAF07EB8D
:10E1C000C10CDCE9007C18EB070746EB0C06AE97A8
:10E1D000AF96260F46EA05162F0FB44647EA0417F6
:10E1E0004FEA9509AE0746EA940B49EA84768CEA31
:10E1F000060C87EA0B074FEAD5196E0646EAD41BD0
:10E2000049EA4466B9468CEA060789EA0B06DDE965
:10E210000A8904EA080C05EA090BDDE9089A04EA10
:10E22000090905EA0A0A8CEA09088BEA0A0CDDE901
:10E2300008BEDDE90A9A09EA0B090AEA0E0A88EA29
:10E2400009088CEA0A0917EB080C46EB0906CDF819
:10E25000B0C2AD96DDE9027CCDE9007CDDE9046C5D
:10E26000CDE9026CCDE90423DDE9069CAE9FAF9EAB
:10E2700019EB07024CEB0603DDE9086CCDE9066CEF
:10E28000DDE90A6CCDE9086CCDE90A45DDF8B0C2DC
:10E29000DDF8B882AD9FAF9E18EB0C0446EB070586
:10E2A000491C5029FFF64DAFD0E900763F196E4169
:10E2B000C0E90076D0E90296DDE90AC719EB0C0C3B
:10E2C0007E41C0E902C6D0E90496DDE908C719EB32
:10E2D0000C0C7E41C0E904C6D0E90697DDE906C60C
:10E2E00019EB0C0C7741C0E906C7D0E90876BF18D6
:10E2F0005E41C0E90876D0E90A9CDDE9047619EBB5
:10E3000007074CEB060CC0E90A7CD0E90C86DDE976
:10E3100002C718EB0C0C7E41C0E90CC6D0E90E8692
:10E32000DDE9007C18EB070746EB0C06C0E90E762A
:10E330000026A0F850600DF5317DBDE8F08F00009B
:10E3400040A8020030B502460B460AB9012030BD94
:10E350000020A2F8500000249464D464146454642F
:10E36000002106E003EBC10411CC02EBC10511C58D
:10E37000491C0829F6DB0020C2F8D400C2F8D800F6
:10E3800000BFE4E72DE9F04705460F46924615B970
:10E390000120BDE8F0870FB90120FAE7D5F8D800D1
:10E3A00010B1D5F8D800F4E7D5F8D40018B9802119
:10E3B0002846FFF7E8FC002414E02646E01704EBAB
:10E3C0005070C010A4EBC000C0F10700C200E01004
:10E3D00005EBC000D0E9008940464946FEF799F8B0
:10E3E0003855641C5445E8DB0020D2E770B504467C
:10E3F0000D4616460CB9012070BD0EB90020FBE792
:10E400000DB90120F8E7D4F8D40018B10320C4F8FE
:10E41000D800F1E7D4F8D80010B1D4F8D800EBE771
:10E4200036E0297834F9502F2088401C00B224F8B7
:10E43000500904F152008154194AD4E91210C2E97A
:10E440000010D4E91210083140F100001346C4E96D
:10E4500012100CCB891A98410DD2D4E91010491C26
:10E4600040F100000023C4E9101059405840014316
:10E4700001D1022001E0D4F8D800C4F8D80030B9A6
:10E48000B4F95000802802D12046FFF735FD6D1CFD
:10E49000301EA6F10106C4D1D4F8D800ACE70000C4
:10E4A000A821002010B5044602492046FFF74AFF84
:10E4B00010BD0000F021002070B504460D4640223A
:10E4C00029462046FFF75EFF70BD10B50BF058FAE5
:10E4D00010BD000070B50B48006880B109480068A5
:10E4E0008047044600BF25463DB100BF064A4FF4B1
:10E4F000B371284601F065F800BF00BF01E008F0E5
:10E5000015FD70BDAC200020C0AD020001480249DD
:10E51000086070470090D0034C22002010B506F030
:10E5200057FD28B171480068C0F342307049086057
:10E5300006F08AFD28B16F48006820F080706D49B0
:10E54000086006F09FFD48B100206B4908604FF05D
:10E550008041C1F810016649091F086006F0CEFD30
:10E5600018B1032062496431086006F0E5FD002817
:10E5700055D062480068624908606048001D006824
:10E58000091D08605D4808300068091D08605B4887
:10E590000C300068091D0860584810300068091DDB
:10E5A0000860564814300068091D08605348183048
:10E5B000006853492031086050481C300068091D2C
:10E5C00008604E4820300068091D08604B48243020
:10E5D0000068091D0860494828300068091D086066
:10E5E00046482C300068091D0860444830300068F7
:10E5F000434940310860414834300068091D0860D3
:10E600003E4838300068091D08603C483C300068CE
:10E61000091D0860394840300068091D0860354808
:10E620007438006840F4700032497439086000BFE3
:10E6300000BF00BFBFF34F8F00BF00BF00BF00BFD0
:10E6400000BF00BFBFF36F8F00BF00BF00BF2D48EA
:10E65000006800F0004028B92A48006800F0004037
:10E66000002840D001202849086000BF27480068E2
:10E670000028FBD015202349086000BF234800680C
:10E680000028FBD015211F48001D016000BF1F4856
:10E6900000680028FBD000201B49086000BF1B4811
:10E6A00000680028FBD000BF00BF00BF00BF00BF54
:10E6B000BFF34F8F00BF00BF00BF0E48F0380068A7
:10E6C00000F4E06012490843001D0A49F03908606F
:10E6D00000BF00BF00BFBFF34F8F00BF00BF00BF30
:10E6E00000BF00BFFDE7FFF711FF10BD440200109F
:10E6F0003C050040FCED00E00C010040040400106B
:10E7000020C500400012001004E5014000E4014073
:10E710000000FA0510B50448007F10B10BF0F0FBC3
:10E7200001E00BF03DFB10BD7C28002001460529CF
:10E730000CD2DFE801F0030507090C004020704708
:10E740004020FCE74020FAE78020F8E700BF802067
:10E75000F5E7014605290CD2DFE801F003050709BA
:10E760000C00142070471C20FCE72020FAE7302022
:10E77000F8E700BF4020F5E770B504460D461646A1
:10E780000CB9012070BD2068052827D2DFE800F011
:10E79000030A11181F003246294604F10800FEF74B
:10E7A00075FEEFE73246294604F10800FFF776F8D8
:10E7B000E8E73246294604F10800FFF771FAE1E77D
:10E7C0003246294604F10800FFF7BFFADAE732467D
:10E7D000294604F10800FFF709FED3E70420D1E73A
:10E7E00070B504460D460CB9012070BD2560052D9D
:10E7F0001DD2DFE805F003080D12170004F1080030
:10E80000FFF708F8F1E704F10800FFF751F8ECE72B
:10E8100004F10800FFF786FAE7E704F10800FFF7C4
:10E820009FFAE2E704F10800FFF73CFEDDE7042071
:10E83000DBE770B504460D460CB9012070BD2068B9
:10E84000052822D2DFE800F003090F151B00294636
:10E8500004F10800FEF7FEFFF0E7294604F1080086
:10E86000FFF730F8EAE7294604F10800FFF764FAF9
:10E87000E4E7294604F10800FFF77CFADEE72946C1
:10E8800004F10800FFF718FED8E70420D6E70000DF
:10E8900010B5124C02202061606111A0A0611349E3
:10E8A000E1614FF4806121620021A1626162E16255
:10E8B0000BA0A0640E49E164102121650021A1652F
:10E8C0006165E1650BA1E01DFDF76BFE0AA1204625
:10E8D000FDF767FE2020A07110BD0000443200202B
:10E8E0005465726D696E616C00000000342E00206A
:10E8F00034320020525454005345474745520000DB
:10E9000010B501460A69CB689A4204D88C68641E27
:10E91000E41AA01801E0D41A601E10BD2DE9FC5FB6
:10E9200006460F4692469846DDE90C45002F01DA6F
:10E93000784200E0384683464FF0010903E09BFB34
:10E94000FAFB09F10109D345F9DAC84500D9C146F6
:10E9500034B1002F03DB05F00400042800D1641E4D
:10E9600005F0020010B1B8F1000F11D005F0010060
:10E9700070B96CB108E0641E2021304600F0BAF88E
:10E98000F068002800DA02E00CB1A145F3D300BF23
:10E99000F068002836DB002F05DA7F422D21304653
:10E9A00000F0A8F807E005F00400042803D12B21AB
:10E9B000304600F09FF8F068002823DB05F00200E5
:10E9C000022814D105F0010088B9B8F1000F0ED16A
:10E9D0006CB108E0641E3021304600F08BF8F0681E
:10E9E000002800DA02E00CB1A145F3D300BFF068C3
:10E9F000002807DB4346524639463046CDE90045FC
:10EA000000F002F8BDE8FC9F2DE9FC5F80468946D6
:10EA100015461E460C9CCDF804900127BB4605E028
:10EA20000198B0FBF5F001900BF1010B0198A842A1
:10EA3000F6D25E4500D9B3460D9800F00100D0B97A
:10EA4000CCB10D9800F00200022803D116B9302095
:10EA5000009001E02020009009E0641E40460099EB
:10EA600000F048F8D8F80C00002800DA02E00CB1F9
:10EA7000A345F2D300BFD8F80C00002835DB09E02D
:10EA8000012E01D9761E04E0B9FBF7FAAA4500D29F
:10EA900001E06F43F4E700BF00BFB9FBF7FA0AFBE0
:10EAA0001799134810F80A10404600F023F8D8F8D8
:10EAB0000C00002800DA03E0B7FBF5F7002FECD1DB
:10EAC00000BF0D9800F0010078B174B109E0641E38
:10EAD0002021404600F00EF8D8F80C00002800DA9B
:10EAE00002E00CB1A345F2D300BFBDE8FC9F0000DB
:10EAF0005CA4020070B504460E46A568681C6168F7
:10EB0000814206D320684655681CA060E068401C1E
:10EB1000E060D4E9011088420DD1A2682168206923
:10EB2000FEF730FBA168884203D04FF0FF30E06071
:10EB300001E00020A06070BD2DE9F0470446894641
:10EB400017464FF0000AE56800BFD4F81080A845CA
:10EB500003D9A8EB0500461E04E0A5EB0800401C05
:10EB6000A1680E1AA068401BB04201D9304601E0EE
:10EB7000A068401B0646BE4201D2304600E038463F
:10EB800006466168481932464946FDF7D2FCB24450
:10EB9000B144BF1B3544A068A84200D10025E56000
:10EBA000002FD2D15046BDE8F0872DE9F04704464A
:10EBB00089461546E668A068871BAF4208D9616898
:10EBC00088192A464946FDF7B4FC7019E06010E048
:10EBD000B8466168881942464946FDF7AAFCA5EB8C
:10EBE000070809EB070142466068FDF7A2FCC4F87C
:10EBF0000C80BDE8F08702E008C8121F08C1002A97
:10EC0000FAD170477047002001E001C1121F002AAD
:10EC1000FBD1704700BFEFF31081084672B6704712
:10EC200030B58FB004460D461C2108A8FDF79AFCAC
:10EC30009DF8200020F00200801C8DF820009DF837
:10EC4000200020F0080008308DF8200000200990F6
:10EC50000B900C900D900E9020788DF80A0047F2E2
:10EC60000250ADF808000020019000BF9DF804009C
:10EC700020F00F00401C8DF804009DF8040020F0E7
:10EC8000F00010308DF8040000BF00BF9DF80500B3
:10EC900020F00F00401C8DF805009DF8050020F0C5
:10ECA000F00010308DF8050000BF9DF8060020F040
:10ECB0000600801C8DF806009DF8060020F0080074
:10ECC00008308DF806009DF8060020F01000103086
:10ECD0008DF806009DF8060020F001008DF8060072
:10ECE000142103A8FDF73EFC02A8039001A804909C
:10ECF0000120ADF814000020ADF8160028680F3090
:10ED000007900120ADF81800608804F10C0303AAF5
:10ED100008A9A2DF0FB030BD02680B685A4002603C
:10ED200042684B685A40426082688B685A408260F1
:10ED3000C268CB685A40C26070472DE9FC41044666
:10ED4000884616460025378800203080606B68B101
:10ED5000616B08783B46324641460AF0C9F80546E1
:10ED600000BF15B12846BDE8FC8100BF206B58B13B
:10ED70003B4632464146206B0AF09CFF054600BFE9
:10ED80000DB12846EFE700BF94F82E0060B194F86B
:10ED90002E003B463246414608F0AEFA054600BF1B
:10EDA0000DB12846DFE700BF94F82D0050B13A4678
:10EDB0003146404601F027F9054600BF0DB128460F
:10EDC000D1E700BFA07850B13A463146404600F046
:10EDD00087FE054600BF0DB12846C4E700BFE078B6
:10EDE00060B1E17848B23B463246414606F071FEDA
:10EDF000054600BF0DB12846B5E700BF606868B1A1
:10EE0000616891F900003B46324641460AF0ACFF8A
:10EE1000054600BF0DB12846A5E700BF20890028A0
:10EE20000EDD43460622022104F10800CDE9006709
:10EE30000BF012FA054600BF0DB1284693E700BF5C
:10EE4000208A00280EDD43460722032104F110002A
:10EE5000CDE900670BF000FA054600BF0DB128466A
:10EE600081E700BF208B00280EDD434615221421C8
:10EE700004F11800CDE900670BF0EEF9054600BF7C
:10EE80000DB128466FE700BF206A58B13B463246B5
:10EE90004146206A03F013F9054600BF0DB128462C
:10EEA00061E700BF606A58B13B4632464146606A3E
:10EEB00008F05CFC054600BF0DB1284653E700BFD3
:10EEC00094F82C0000280BDD3B4632464146204694
:10EED0000AF09BF8054600BF0DB1284643E700BF86
:10EEE000207858B13B4632464146204608F0B9FCEE
:10EEF000054600BF0DB1284635E700BF284632E77A
:10EF000010B504460020024908700AF0B3F910BD9C
:10EF1000082100202DE9F04108F060F8124800882F
:10EF20004FF40041A0FB01204FF4FA73D61840F1D2
:10EF300000015A0000233046FDF7BAFA05460022C8
:10EF400029460A48006800F05BFD044600BF2546DC
:10EF50003DB100BF06A24FF49A71284600F031FB84
:10EF600000BF00BFBDE8F08102210020D0A4020054
:10EF70002E2E5C2E2E5C2E2E5C736F757263655C7C
:10EF80006D6F64756C65735C6564647973746F6EC2
:10EF9000655F6164766572746973696E675F6D61E0
:10EFA0006E616765722E630030B58FB004460D4602
:10EFB0001C2108A8FDF7D6FA9DF8200020F00200D9
:10EFC000801C8DF820009DF8200020F008000830FB
:10EFD0008DF82000002009900B900C900D900E9061
:10EFE00020788DF80A0047F20350ADF808000020A1
:10EFF000019000BF9DF8040020F00F00401C8DF828
:10F0000004009DF8040020F0F00010308DF804009A
:10F0100000BF00BF9DF8050020F00F00401C8DF8D8
:10F0200005009DF8050020F0F00010308DF8050077
:10F0300000BF9DF8060020F00600801C8DF8060039
:10F040009DF8060020F0080008308DF806009DF8B5
:10F05000060020F0100010308DF806009DF8060024
:10F0600020F001008DF80600142103A8FDF77AFABC
:10F070002868008A0090BDF800000002BDF800106A
:10F0800040EA212080B2009002A8039001A80490D9
:10F090000220ADF814000020ADF81600CDF81CD009
:10F0A0000220ADF81800608804F1140303AA08A92F
:10F0B000A2DF0FB030BD00003EB505461F48204915
:10F0C0000978445C00201F490870FF2C22D074DFAF
:10F0D0006946204603F0AEFF204603F02DFFC0B185
:10F0E00019480078A8B99DF8030020280BD11548CD
:10F0F000401C03F07FFF30B1204606F069F8002085
:10F1000006F048F805E0204600F0F2F8002004F090
:10F11000A1FA00BF0A480078401C09490870074856
:10F1200003F04AFF06490978884203DC00200449BD
:10F13000087001E000F00AF83EBD00000E2100203A
:10F140001421002008210020FE2000202DE9F0419C
:10F1500014484088002823D0124840884FF40041CA
:10F16000A0FB01204FF4FA73D61840F100015A00B9
:10F1700000233046FDF79CF90546002229460A483F
:10F18000006800F03DFC044600BF25463DB100BFCD
:10F1900006A240F2E511284600F013FA00BF00BFB6
:10F1A000BDE8F08102210020D4A402002E2E5C2EA6
:10F1B0002E5C2E2E5C736F757263655C6D6F64756B
:10F1C0006C65735C6564647973746F6E655F6164AC
:10F1D000766572746973696E675F6D616E6167658C
:10F1E000722E630030B58FB004460D461C2108A86E
:10F1F000FDF7B8F99DF8200020F00200801C8DF882
:10F2000020009DF8200020F0080008308DF8200034
:10F21000002009900B900C900D900E9020788DF8A6
:10F220000A0047F20550ADF808000020019000BF29
:10F230009DF8040020F00F00401C8DF804009DF89C
:10F24000040020F0F00010308DF8040000BF00BF73
:10F250009DF8050020F00F00401C8DF805009DF87A
:10F26000050020F0F00010308DF8050000BF9DF87B
:10F27000060020F00600801C8DF806009DF80600B0
:10F2800020F0080008308DF806009DF8060020F0F8
:10F29000100010308DF806009DF8060020F00100E7
:10F2A0008DF80600142103A8FDF75CF902A803906D
:10F2B00001A804900120ADF814000020ADF816005C
:10F2C0002868133007900120ADF81800608804F119
:10F2D000240303AA08A9A2DF0FB030BD0146C878F5
:10F2E00000F0040008B9072070470020FCE7000088
:10F2F00070B594B0064626480068059003A93046CC
:10F3000006F0F6F94FF6AA60ADF80000DDE903015A
:10F31000CDE90101382106A8FDF724F900208DF878
:10F32000180006208DF81B000120ADF8280005A963
:10F330000B91CDF840D08DF84400002106A800F0D4
:10F34000F8FB044600BF25463DB100BF11A240F2C4
:10F350002111284600F035F900BF00BF18211B48D5
:10F36000FDF700F903201949087000204860087271
:10F37000174800884FF47A71484340F2712190FB9E
:10F38000F1F0124908820020488214B070BD0000DC
:10F39000E4A402002E2E5C2E2E5C2E2E5C736F7564
:10F3A0007263655C6D6F64756C65735C65646479CC
:10F3B00073746F6E655F6164766572746973696E8C
:10F3C000675F6D616E616765722E6300943800201F
:10F3D000022100202DE9F74F84B081468B4604209E
:10F3E000039006988708D9F80000401C0399484309
:10F3F000029009F10408002406E00BEB840009F0F8
:10F400007FFA48F82400641CBC42F6D34FF0010A8E
:10F4100000252DE0601E58F82060BD4202D10AF19F
:10F42000010A00259DB93046082100FA01F2C1F118
:10F43000200320FA03F31A431049104601920AF000
:10F440008FF90F4911F80A1080EA016608E0062FCB
:10F4500006D9042D04D1094930460AF081F906463F
:10F46000E01B58F82000704048F82400641C6D1C14
:10F4700002988442CED307B0BDE8F08F14A50200F5
:10F4800014A60200014600BF064A10684FF400228D
:10F490008243044B1B1D1A6000F400221B1D1A60DE
:10F4A00000BF70470405005010B574DF06480068BF
:10F4B00000F0D2FA0548006800F0CEFA044800686F
:10F4C00000F0CAFA10BD0000D0A40200D4A40200CB
:10F4D000D8A4020010B5002407E00749096811F814
:10F4E0003400012108F05AFA641C04480078844270
:10F4F000F3D3002010BD0000602000206420002015
:10F500002DE9F84306460C461746052F02D2072080
:10F51000BDE8F88308F042FB38B908F015FB054652
:10F5200000BF0DB12846F3E700BF16480660164835
:10F5300004701648076000201549086015490860E6
:10F5400015E006EBC40814480068009098F8020023
:10F550008DF8010098F80000104A694608F07AFA20
:10F56000054600BF0DB12846D2E700BF00BF201EF0
:10F57000A4F10101CCB2E4D1094A0021094800F00C
:10F580007FF9C5E76020002064200020682000206B
:10F590006C2000207020002058A40200716C020032
:10F5A0000125020054A4020070B504460D4616461B
:10F5B0000C2001F033FA32462946204600F012F8BA
:10F5C00070BDFEB504460E461546B0B2ADF800005B
:10F5D000019502946A46002144F20100FFF7E4FF1E
:10F5E000FEBD000018B5012300939DF800301E4BAE
:10F5F000186059609A606FF48043034463B1012B33
:10F6000019D1194BDA60DB681B88174CA3612346BC
:10F61000DB685B68E3610EE0134B1A611B699B6852
:10F62000114C636123461B691B88A36123461B6938
:10F630005B68E36100BF00BF0B4B1B680A4B5B6854
:10F64000094B9B68084BDB68074B1B69064B5B69E2
:10F65000054B9B69044BDB6972B600BF9DF8003017
:10F66000002BFBD162B618BDA0290020F8B50546D5
:10F670000C462778A06800EB4000064951F820604E
:10F680000548006800902A46394604F108002369BD
:10F69000B047F8BD682900205820002010B5044666
:10F6A0000748007800EB80020548001D00EB82014E
:10F6B0002046FFF7DBFF042009F0E4FD10BD000049
:10F6C0009C2800202DE9F04105460E4617464FF0D4
:10F6D000050800BF1449087814490978814201D10E
:10F6E000012100E00021D9B90F480478007808F022
:10F6F00019F90D4908700E4800680E49098804FB85
:10F70000010028600C48006800EBC400808830804D
:10F710000948006850F8340038604FF0000800BF16
:10F720004046BDE8F0810000A4200020A520002074
:10F73000A0200020A62000209C2000202DE9F843D6
:10F7400007460C46904626480088844244DC4FF623
:10F75000FF7500200090684600F098F900BF21482E
:10F7600090F800902048007808F0DCF8484501D176
:10F77000012000E0002030B91B480578007808F02F
:10F78000D1F8194908709DF8000000F085F94FF68E
:10F79000FF7085421ED01548006840F835808FB153
:10F7A000002C0FDD124909680D4A128805FB021072
:10F7B00022463946FCF7BDFE0C48006800EBC50048
:10F7C000848005E000200949096801EBC5018880B3
:10F7D000002600E0042600E009263046BDE8F88354
:10F7E000A6200020A4200020A52000209C2000208E
:10F7F000A02000200EB504E0BDF80410009A029885
:10F8000090476A4601A902A8FFF75CFF0028F3D0E1
:10F810000EBD000030B50346481C4FF6FF7505EAE3
:10F82000C004104600F003050DB9012500E00025D5
:10F830000DB9072030BD084802601019074D286037
:10F840000020074D2870074D28700748038007489F
:10F8500001800020EEE700009C200020A020002076
:10F86000A5200020A4200020A6200020A820002001
:10F8700010B5044609F018F92060002010BD000002
:10F8800010B503460C4600BF0B48006808B90820B5
:10F8900010BD00BF0AB90720FAE70BB90720F7E748
:10F8A0001868007C08B10820F2E719680020087485
:10F8B0004C744A6100BFEBE7782000202DE9F0414D
:10F8C00004460D46264600BF082D01D1012000E068
:10F8D0000020074637B900BF05A214210020FFF71A
:10F8E00070FE00BF00BFD6E900108847BDE8F08178
:10F8F0002E2E5C2E2E5C2E2E5C73646B5F636F6D00
:10F90000706F6E656E74735C6C696272617269654A
:10F91000735C74696D65725C6170705F74696D654C
:10F92000725F61707073682E630000007CB50446DE
:10F930000D4600940195034A08216846FFF7FEFE34
:10F940007CBD0000BDF801002DE9F04180460E4667
:10F9500014461F46204600F0030109B9012100E0CA
:10F96000002111B90720BDE8F08124B900201D490C
:10F9700008600720F7E709F0C7F81B480760032075
:10F980001A49087017480460183400250DE015491D
:10F99000096801EBC5000021017041708670446068
:10F9A00006EB460104EBC1046D1C032DEFDB0020C8
:10F9B0000F4908600F4908700F4908701420FDF7BF
:10F9C000FBFA06211420FDF71BFB1420FDF700FBBA
:10F9D000404609F06FF809F067F808490860002010
:10F9E000C1E7000078200020902000207420002033
:10F9F0007C2000208C2000208D20002080200020F2
:10FA00002DE9F84304460D461746264600BF114827
:10FA1000006810B90820BDE8F88300BF0CB90820C1
:10FA2000F9E7052D01D20720F5E7706908B908202C
:10FA3000F1E7707C012801D1284600E000208046D3
:10FA40000AF0C4FB814643462A46314600970AF035
:10FA500031F8E0E77820002070B50446254600BF65
:10FA60000948006808B9082070BD00BF0CB168697A
:10FA700008B90820F8E7002028740AF0A7FB06461A
:10FA800029460AF045F8EFE77820002010B5044633
:10FA9000204609F0F9F910BD70B5044625460E4818
:10FAA0008068B0B1ADB9FFF7B5F806460A480068FE
:10FAB0000A490860084840684FF0E021C1F8040195
:10FAC0000020054988601EB900BF62B600BF00BFB4
:10FAD00000BF00BF70BD0000BC32002000E100E0AC
:10FAE000F8B505460C4617462088001DB84201D9D6
:10FAF0000C20F8BD684679DF064600BF0EB13046DF
:10FB0000F7E700BF0320218868542088401C20802C
:10FB10001920218868542088401C208020884119A1
:10FB2000BDF800000AF082FA2188084420800020F5
:10FB3000DFE72DE9F04192B080460D461F2011907D
:10FB40001090B8F1000F17D04046FFF7C7FB0446EE
:10FB500000BF1CB1204612B0BDE8F08100BF11AA61
:10FB600008A94046FFF7E9F8044600BF0CB120465B
:10FB7000F1E700BF08AE02E0002600201190ADB111
:10FB8000284609F077FC044600BF0CB12046E2E7A6
:10FB900000BF10AA69462846FFF7CFF8044600BF09
:10FBA0000CB12046D7E700BF6F4602E000270020D7
:10FBB0001090BDF84000C3B2BDF84400C1B23A464F
:10FBC000304672DFC7E7000070B504462088102871
:10FBD00004D0112809D01B2863D11BE0A07D012887
:10FBE00002D1A088304908805CE000202F490870CD
:10FBF000A0882D49098888420BD1012000F068F8BF
:10FC0000054635B12A48006818B1284628490968D0
:10FC1000884747E0207A002842D12648007801280A
:10FC200006D0022811D003281CD0042836D129E0A0
:10FC3000022000F04DF8054635B11D48006818B1A6
:10FC400028461B490968884729E0032000F040F84E
:10FC5000054635B11648006818B1284614490968A8
:10FC600088471CE0032014490870042000F030F895
:10FC7000054635B10E48006818B128460C49096898
:10FC800088470CE000200C4908700C48006820B13F
:10FC90000846007809490968884700E000BF00BFAE
:10FCA00000E000BF00BF70BD362000202D200020E6
:10FCB000282000202C2000202020002024200020AC
:10FCC0000248002101608180817170471920002065
:10FCD00030B587B005469548057005F015FF28B189
:10FCE000012093490870002007B030BDFFF7E8FFFE
:10FCF0009048407818B18D48007801280DD08D4883
:10FD0000807818B189480078012806D08948807821
:10FD100088B18648007802280DD18748006838B13C
:10FD2000012086490870082083490968884702E055
:10FD30000020824908707D480078012809D17D485B
:10FD4000407818B17E4808F09AF910B90220774936
:10FD5000087076480078022809D17648807818B172
:10FD6000774808F08CF910B9032070490870714881
:10FD7000007B30B96D480078032802D104206B491C
:10FD800008706C48007E40B968480078042804D1A7
:10FD90000020664908706B49087067480068A8B180
:10FDA00062480078032803D06048007804280DD109
:10FDB0006048007850B16448007838B90120634940
:10FDC000087007205C490968884702E000205F4905
:10FDD0000870182101A8FCF7C5FB00208DF804006D
:10FDE00002908DF80C00049050480078012806D04D
:10FDF000022813D0032825D0042876D150E050489B
:10FE0000401E029001208DF804000020ADF816007D
:10FE1000ADF8140001204B49087071E04848401EBD
:10FE2000029001208DF804004248008980B2ADF8AC
:10FE300016004048808880B2ADF814000220414985
:10FE400008705DE03B48808A80B2ADF81600394802
:10FE5000008A80B2ADF814003D480AF092FAD8B199
:10FE600034480078C0B138480078A8B902208DF82D
:10FE70000C003748049004203649C87000213548EA
:10FE8000FFF757FE044600BF0CB120462CE700BF29
:10FE900005202C49087002E003202A4908702FE051
:10FEA0002448808B80B2ADF814002248008C80B2C8
:10FEB000ADF8160026480AF064FAE0B11D48007853
:10FEC000C8B121480078B0B902208DF80C00204854
:10FED000049004201F49C87000211E48FFF729FE26
:10FEE000044600BF14B12046FEE608E000BF06202D
:10FEF0001449087002E004201249087000E000BFB5
:10FF000000BF0A48007838B101A873DF044600BF7B
:10FF10000CB12046E8E600BF0748006820B1094858
:10FF200000780549096888470020DDE62C2000207C
:10FF30001820002058270020242000202F200020F7
:10FF40001A200020202000202D2000202E2000201C
:10FF50007C2700202027002070B505461C2229465A
:10FF60001248FCF7E6FA002011490870286850B1E1
:10FF7000104829680A680260496841607ADF0446CF
:10FF80003CB1204670BD0B487BDF04460CB12046D7
:10FF9000F8E74FF6FF70084908800020074908700D
:10FFA000074A00210748FFF76BFCEBE7E426002037
:10FFB00016200020022000200C2000200A20002013
:10FFC0003DA1020028A4020010B504462088102894
:10FFD00006D0112808D012280ED0502810D107E0E2
:10FFE000204607F0D7FE0CE0204607F0F3FE08E0BD
:10FFF000204607F075FF04E0204607F0BFFE00E052
:020000040002F8
:1000000000BF00BF10BD2DE9FC4105460C46174658
:1000100020880930B84202D90C20BDE8FC8168462E
:1000200071DF064600BF0EB13046F6E700BF08207C
:10003000218868542088401C20801B202188685417
:100040002088401C208020882844DDF801100160B1
:10005000BDF8051081802088801D20809DF800005B
:1000600018B900202188685402E0012021886854D2
:100070002088401C20800020CFE7000070B586B0AB
:1000800005460E46554B0FCB01AC0FC400BF15B94A
:100090000E2006B070BD00BF00BF0EB90E20F8E7FD
:1000A00000BF4FF6FF70A5F864007068A866B068DE
:1000B000E866294601A863DF044600BF0CB120466C
:1000C000E7E700BF28788DF816004FF4EA40ADF856
:1000D0001400AA1C05A90120A0DF044600BF0CB132
:1000E0002046D6E700BF3146284600F07BFB044699
:1000F00000BF0CB12046CCE700BF31462846FEF7D2
:100100008FFD044600BF0CB12046C2E700BF314658
:100110002846FEF749FF044600BF0CB12046B8E769
:1001200000BF3146284608F059FB044600BF0CB119
:100130002046AEE700BF31462846FFF753F8044695
:1001400000BF0CB12046A4E700BF3146284607F0A7
:10015000EBF9044600BF0CB120469AE700BF3146D8
:10016000284609F069FF044600BF0CB1204690E71D
:1001700000BF3146284608F0BDFA044600BF0CB166
:10018000204686E700BF3146284604F05BFE044661
:1001900000BF0CB120467CE700BF3146284608F07E
:1001A000DFFC044600BF0CB1204672E700BF3146B9
:1001B000284605F08BF8044600BF0CB1204668E7DE
:1001C00000BF3146284608F0A7FB044600BF0CB12B
:1001D00020465EE700BF00205BE700006CA4020041
:1001E00070B505460C4605B104B970BD20881028CD
:1001F0000AD004DC022832D0032841D13AE0112889
:1002000007D051283CD109E02146284607F0DEFD01
:1002100037E02146284607F0FDFD32E0A0790128AD
:1002200004D12146284607F0FAFD17E0A0790228FC
:1002300014D1A07B042805D1002213A11046FCF79D
:10024000FDFF07E0A07B062804D1002214A1104680
:10025000FCF7F4FF2146284607F06EFE11E0B5F8E2
:100260006400154967DF0646324614A10020FCF7FA
:10027000E5FF06E0002219A11046FCF7DFFF00E0D1
:1002800000BF00BF00BFB0E7505245505F57524912
:1002900054455F52455155455354200D0A00000006
:1002A000455845435F57524954455F52455155455E
:1002B0005354200D0A000000C4200020555345521D
:1002C0005F4D454D5F524551554553543A20657237
:1002D000726F723A202564200D0A00005553455272
:1002E0005F4D454D5F52454C454153450D0A000059
:1002F0003EB5114903C9CDE9000102A801900F489C
:1003000081896A460E480088A5DF044600BF25465D
:100310003DB100BF0BA24FF498712846FFF751F989
:1003200000BF00BF9DF80800052801DD05200290F0
:100330009DF808003EBD00009CA402000833002088
:10034000CC2000202E2E5C2E2E5C2E2E5C736F7522
:100350007263655C6D6F64756C65735C656464790C
:1003600073746F6E655F626C655F68616E646C6507
:10037000722E63003EB50D4903C9CDE9000102A804
:1003800001900B48818D6A460A480088A5DF044623
:1003900000BF254635B100BF07A2F1212846FFF76F
:1003A00010F900BF00BF9DF808003EBD84A4020004
:1003B00008330020CC2000202E2E5C2E2E5C2E2E0A
:1003C0005C736F757263655C6D6F64756C65735C8F
:1003D0006564647973746F6E655F626C655F686194
:1003E0006E646C65722E6300FEB503260E4903C968
:1003F000CDE9000102A801900C4881886A460C48AA
:100400000088A5DF044600BF25463DB100BF09A214
:1004100040F205112846FFF7D4F800BF00BF9DF851
:10042000080000F00100FEBD8CA40200083300208B
:10043000CC2000202E2E5C2E2E5C2E2E5C736F7531
:100440007263655C6D6F64756C65735C656464791B
:1004500073746F6E655F626C655F68616E646C6516
:10046000722E6300FEB503260E4903C9CDE90001D3
:1004700002A801900C4881886A460C480088A5DFD4
:10048000044600BF25463DB100BF09A240F21B1142
:100490002846FFF796F800BF00BF9DF80800C0F39C
:1004A0004000FEBD94A4020008330020CC200020B0
:1004B0002E2E5C2E2E5C2E2E5C736F757263655C27
:1004C0006D6F64756C65735C6564647973746F6E6D
:1004D000655F626C655F68616E646C65722E630057
:1004E0003EB5002002900D4903C9CDE9000102A8E4
:1004F00001900B48818D6A460A480088A4DF0446B3
:1005000000BF25463DB100BF07A240F24311284677
:10051000FFF757F800BF00BF3EBD0000A4A40200D3
:1005200008330020CC2000202E2E5C2E2E5C2E2E98
:100530005C736F757263655C6D6F64756C65735C1D
:100540006564647973746F6E655F626C655F686122
:100550006E646C65722E63002DE9F04190B0074621
:100560000D460120039000208DF804004FF006088E
:1005700035B1012D1FD0022D3ED0032D66D144E0B0
:100580000120344908800020488003A84860324890
:10059000818D304A31480088A4DF044600BF2646DA
:1005A0003EB100BF2EA24FF4B3713046FFF709F8F9
:1005B00000BF00BF4AE0384602F092FC684639DFCF
:1005C00001E0684639DF9DF800000628F9DB0621C6
:1005D0000DF105003ADF01A9002070DF044600BFDD
:1005E00026463EB100BF1EA24FF4BB713046FEF757
:1005F000E8FF00BF00BF29E00CA9384603F09EFDCC
:100600000CA9384602F054FC20E004A9384603F057
:1006100037FF20200F4908800020488004A8486048
:100620000D48818F0B4A0D480088A4DF044604B1B1
:1006300000BF00BF26463EB100BF09A24FF4C771FC
:100640003046FEF7BEFF00BF00BF00BF00BF10B0C6
:10065000BDE8F081D020002008330020CC2000200D
:100660002E2E5C2E2E5C2E2E5C736F757263655C75
:100670006D6F64756C65735C6564647973746F6EBB
:10068000655F626C655F68616E646C65722E6300A5
:1006900010B504462046FFF797FC204602F07CFF89
:1006A00021460548FFF79CFD204607F0FFFA20464B
:1006B000FFF78AFA10BD00000833002070B586B03D
:1006C00001208DF8140000208DF815008DF816001B
:1006D00007208DF8170000BF00234822314905A8E4
:1006E00008F088FE054600BF2E4636B100BF2EA298
:1006F00087213046FEF765FF00BF00BF00BF6A4696
:100700000121002008F056FE044600BF254635B101
:1007100000BF25A28D212846FEF753FF00BF00BF72
:1007200000BF2D4E304608F0FDFA044600BF2546B6
:1007300035B100BF1CA290212846FEF742FF00BF42
:1007400000BF00BF684608F0B3FD044600BF254661
:1007500035B100BF14A294212846FEF732FF00BF36
:1007600000BF1E4808F098FD044600BF254635B17D
:1007700000BF0DA298212846FEF723FF00BF00BF4F
:10078000174808F06BFE044600BF254635B100BF90
:1007900005A29C212846FEF714FF00BF00BF06B04B
:1007A00070BD0000783300202E2E5C2E2E5C2E2E85
:1007B0005C736F757263655C6D6F64756C65735C9B
:1007C0006564647973746F6E655F626C655F6861A0
:1007D0006E646C65722E6300E81F002091060200B3
:1007E0008998020030B593B004460D461C210CA830
:1007F000FBF7B8FE9DF8300020F00200801C8DF859
:10080000300000200D900F901090119012902078E1
:100810008DF81A0047F20150ADF81800002005903D
:1008200000BF9DF8140020F00F00401C8DF814004C
:100830009DF8140020F0F00010308DF8140000BF77
:1008400000BF9DF8150020F00F008DF815009DF8F1
:10085000150020F0F0008DF8150000BF9DF816007F
:1008600020F00600801C8DF816009DF8160020F080
:10087000080008308DF816009DF8160020F01000D2
:100880008DF816009DF8160020F00100401C8DF830
:100890001600142107A8FBF765FE102201A829689D
:1008A000FBF747FEBDF808000002BDF9081040EA5A
:1008B000212000B2ADF8080006A8079005A808900E
:1008C0000F20ADF824000020ADF8260001A80B9001
:1008D0000F20ADF828006088231D07AA0CA9A2DF0D
:1008E00013B030BD2DE9F04105460F464FF000082A
:1008F000002400E0641C042C04D22A4850F8240090
:10090000A842F7D1042C41D227B3012F02D0022FE5
:100910003BD133E004EB4400234911F8008004EBA1
:1009200044000844407868B12048006800EB80002B
:1009300041001F4A1F480068FFF762F806460EB9DB
:100940001B48057004EB44001749084480781A4995
:1009500008551AE017480068FFF77EF81648005D52
:1009600004EB4401104A11448978884205D104EB14
:1009700044001146084490F8028006E004EB44006D
:100980000949084490F8018000BF00BFB8F1000F8A
:1009900006D00A48006818B14046084909688847E7
:1009A000BDE8F081F8A30200B8260020EC1F00206B
:1009B000FC1F0020F4A30200FD1F0020F81F0020F0
:1009C00030B503460020042B23D2012A07D1012988
:1009D00003D103F10D04E4B200E00024224679B112
:1009E000012902D0022911D104E003EB43040A4D8E
:1009F0002A550DE003EB4304074D2C44627007E0D9
:100A000003EB4304044D2C44A27001E0072000BF17
:100A100000E0072030BD0000B826002070B5044675
:100A200000250548007800F0010018B1204600F0CC
:100A30006DF80546284670BDF01F00202DE9F041F5
:100A400005460E4690460024254806602548056068
:100A50002548C0F8008005F00200F8B1002706E044
:100A6000012211463846FFF7ABFF04467F1C042FD6
:100A700001D2002CF4D02CB9720804211B48FEF7D7
:100A80003FFD044614B9FEF725FD04462CB9184A6B
:100A900000211848FEF7F4FE044600BF05F00100EF
:100AA00068B100BF4FF4F010134908600020091D21
:100AB000086000BF4FF4F0100F49103108602CB9E6
:100AC0000E4A00210E48FEF7DBFE04462CB90D4A03
:100AD00001210D48FEF7D4FE04462046BDE8F08112
:100AE000EC1F0020F01F0020F81F002008A40200C7
:100AF000A9100200F4A3020008050050657302006B
:100B0000ECA3020085F40100F0A302002DE9F041FE
:100B1000044600260025182C7DD2DFE804F00C1DC9
:100B20001E68B4EEEDECEBEAE9E8E7E6E5E4E3E2C3
:100B3000E1E0DFDEDDDC00BFFD4801684FF4F010CE
:100B4000884300F4F010FB4908600020091D08608C
:100B500000BFF948047098E200BF00BFF448016884
:100B60004FF4E010884300F4F010F24908600020D0
:100B7000091D086000BFEF48001F006880F4F010F6
:100B800000F4003088B100BF4FF40030091F086046
:100B90000020091D086000BF022C02D14FF4E16063
:100BA00001E04FF47A60054610E000BF4FF40030DA
:100BB000E049091D08600020091F086000BF022CE1
:100BC00001D1C82001E04FF4C8700546DA4804702E
:100BD0006420B5FBF0F0D949096800FB01F7002259
:100BE0003946D7480068FEF70BFF06464DE200BFC6
:100BF000CF4801684FF4E010884300F4F010CD496D
:100C000008600020091D086000BFCA48001F006876
:100C100080F4F01000E037E200F4003088B100BF4B
:100C20004FF40030091F08600020091D086000BF54
:100C3000032C02D14FF4487001E04FF47A6005466E
:100C400010E000BF4FF40030BA49091D08600020D1
:100C5000091F086000BF032C01D1C82001E04FF438
:100C6000C8700546B44804706420B5FBF0F0B34981
:100C7000096800FB01F700223946B1480068FEF719
:100C8000BFFE064601E200BFA94801684FF4E0102C
:100C9000884300F4F010A74908600020091D08608F
:100CA00000BFA448001F006880F4F01000F400307A
:100CB00020B300BF4FF40030091F08600020091D59
:100CC000086000BF042C02D14FF47A6001E04FF4B9
:100CD0007A60054624E0CBE1C9E1B3E19DE187E11B
:100CE00079E13FE13DE13BE139E137E12AE105E12D
:100CF000EDE0D3E0BBE0A1E06CE022E000BF4FF408
:100D000000308C49091D08600020091F086000BFE1
:100D1000042C02D14FF4C87001E04FF4C8700546AE
:100D2000854804706420B5FBF0F08449096800FB35
:100D300001F70022394682480068FEF761FE064648
:100D4000A3E100BF7A4801684FF4E010884300F443
:100D5000F010784908600020091D086000BF754840
:100D6000001F006880F4F01000F4003080B100BF74
:100D70004FF40030091F08600020091D086000BF03
:100D8000052C01D1C82001E04FF47A60054610E03F
:100D900000BF4FF400306749091D08600020091F9B
:100DA000086000BF052C01D1C82001E04FF4C870D5
:100DB0000546614804706420B5FBF0F05F4909689E
:100DC00000FB01F7002239465D480068FEF718FE77
:100DD00006465AE100BF564801684FF4E0108843C8
:100DE00000F4F010534908600020091D086000BF9E
:100DF0005048001F006880F4F01000F4003040B14B
:100E000000BF4FF40030091F08600020091D086072
:100E100009E000BF4FF400304649091D086000207A
:100E2000091F086000BF444804704448002201685C
:100E300043480068FEF7E4FD064626E100BF3C4853
:100E400001684FF4E010884300F4F010394908605D
:100E50000020091D086000BF00BF4FF4003008608B
:100E60000020091F086000BF334804700DE100BF77
:100E70003049091F08684FF4802181432D4A1160D1
:100E800000F48021121D116000BF2C48002201686F
:100E90002B480068FEF7B4FD0646F6E000BF254982
:100EA000091F08684FF480218143224A116000F431
:100EB0008021121D116000BF2048006800EB8001F6
:100EC00000221F480068FEF79BFD0646DDE000BFDC
:100ED0001849091F08684FF480218143154A1160A1
:100EE00000F48021121D116000BF14480022016827
:100EF00013480068FEF784FD0646C6E000BF0D49B2
:100F0000091F08684FF4802181430A4A116000F4E8
:100F10008021121D116000BF0848006800EB8001AD
:100F2000002207480068FEF76BFD0646ADE00000B2
:100F3000F41F002008050050E81F0020EC1F0020CF
:100F4000ECA3020000BF4FF4F010524908600020EB
:100F5000091F086000BF5048047096E000BF00BF42
:100F600000BF00BF4D480068FEF776FD0646C4F19D
:100F700011050DB306BB4FF4002049490860012D4F
:100F80000FD9C82068436421B0FBF1F045490968D6
:100F900000FB01F70022394640480068FEF730FDAB
:100FA000064600BF3E48006800F4F010394908606A
:100FB0000020091F08600DE000BF3948006800F4F8
:100FC000F0103449091F08600020091D086000BFA7
:100FD0003349086059E000BF4FF4F0102D49091F54
:100FE00008600020091D086000BF2B4804704CE019
:100FF00000BF4FF4E0102749091F08600020091DB9
:10100000086000BF00BF4FF4003008600020091FD7
:10101000086000BF2048047037E000BF4FF4D010D4
:101020001C49091F08600020091D086000BF00BF9F
:101030004FF4802008600020091F086000BF164898
:10104000047022E000BF4FF4C0101249091F08606D
:101050000020091D086000BF00BF4FF4C0200860D9
:101060000020091F086000BF0B4804700DE000BF9E
:1010700000BF4FF4F010074908600020091F086006
:1010800000BF0548047000E000BF00BF3046BDE867
:10109000F08100000C050050E81F0020F0A30200C2
:1010A000F41F0020EC1F002010B504462078022118
:1010B000FFF718FC10BD2DE9FF4104460D4616460A
:1010C00000BF20680A2807D020680C2804D02068B8
:1010D0000E2801D0AFF3008000BF284607F010FCB7
:1010E0000090281D07F00CFC019005F1080007F0A6
:1010F00007FC029005F10C0007F002FC0390206849
:101100008100201D00EB810739466846FDF704FE8B
:10111000103F2068A0F101080FE0684606F01DF8B6
:10112000684606F061F839466846FDF7F5FD684601
:1011300006F000F8103FA8F10108B8F1000FECD15B
:10114000684606F00AF8684606F04EF839466846E2
:10115000FDF7E2FD3146009809F027F9311D0198AD
:1011600009F023F906F10801029809F01EF906F1C9
:101170000C01039809F019F9BDE8FF812DE9FF4141
:1011800004460D46164600BF20680A2807D020688E
:101190000C2804D020680E2801D0AFF3008000BFD7
:1011A000284607F0ADFB0090281D07F0A9FB019031
:1011B00005F1080007F0A4FB029005F10C0007F010
:1011C0009FFB0390271D39466846FDF7A5FD1037A4
:1011D0004FF001080FE0684608F0A8FA684608F0EA
:1011E00003F8684606F02AFB39466846FDF794FD89
:1011F000103708F1010820684045ECD8684608F02F
:1012000095FA684607F0F0FF39466846FDF784FD19
:101210003146009809F0C9F8311D019809F0C5F868
:1012200006F10801029809F0C0F806F10C010398D4
:1012300009F0BBF8BDE8FF8170B504460E461546BF
:10124000F4212046FBF78EF9102D04D0182D0AD07A
:10125000202D18D10FE00A2020602A463146204672
:10126000FEF7B8F811E00C2020602A4631462046EF
:10127000FEF7B0F809E00E2020602A4631462046ED
:10128000FEF7A8F801E0AFF3008000BF70BD2DE9C4
:10129000F84F80460C4615469A46DDE90A9B002029
:1012A000009023E02668A81B484501D9484600E085
:1012B000A81B0746009828B908EB06005246394695
:1012C000FBF749F91EB9AF4201D101200090F01996
:1012D000A84205D141460C98D8470020206002E082
:1012E000206838442060A9EB070900BFB9F1000F5E
:1012F000D8D1BDE8F88F2DE9FF4784B080468946F4
:101300009246109FDDE91264149D26B1012E03D090
:10131000022E24D110E04CE09DF81C009DF84410F2
:1013200048400790012007AB524649468DE83100FE
:10133000404600F042F83CE0012007AB52464946E7
:101340008DE83100404600F038F8012011AB5246DC
:1013500049468DE83100404600F02FF829E0012091
:1013600007AB524649468DE83100404600F025F86B
:101370009DF84400B84212D0B01E3B465246494642
:101380008DE831004046FFF782FF012011AB524645
:1013900049468DE83100404600F00FF808E0701E25
:1013A0003B46524649468DE831004046FFF76FFF05
:1013B00000BF00BF08B0BDE8F0872DE9FF47054634
:1013C0000E4617469846DDE90D4ADDF83090CDE926
:1013D000009443463A4631462846CDE9024A00F099
:1013E00002F8BDE8FF872DE9F84F07460C46164680
:1013F0009A46DDE90A5BD04600BF17B12068B042CB
:1014000001D3AFF3008000BF00BFBAF1000F02D1DB
:101410000DB1AFF3008000BF00BFBBF1000F01D0E2
:101420000D9808B9AFF3008000BF206828B325B33A
:101430002068301A00900098A84201D2009800E07D
:10144000284681462168C8194A464146FBF771F88B
:10145000C844A5EB09052068484420602068B042D4
:101460000AD125B93946DDE90C20904702E039461A
:101470000D98D8470020206000BF11E000BF206811
:1014800008B1AFF3008000BFB54204D14146DDE9A9
:101490000C20904702E041460D98D847B044AD1B60
:1014A000B542EBD21DE02068301A00900098A842A7
:1014B00001D2009800E0284681462168C8194A46B2
:1014C0004146FBF736F8C844A5EB090520684844B7
:1014D000206000BF2068B04201D3AFF3008000BF9E
:1014E00000BF002DDFD1BDE8F88F2DE9FE4F064685
:1014F0000C4617469946DDE90D8ACDF808900C9800
:10150000019000BF16B12068B84201D3AFF300804C
:1015100000BF00BFB9F1000F04D1B8F1000F01D036
:10152000AFF3008000BF00BFBAF1000F01D00F98E9
:1015300008B9AFF3008000BF2EE0206818B931462B
:101540000F98D04727602068381A009020684045DF
:1015500001D2216800E041460D469DE80D0006EBF2
:10156000000C2946002008E013F800B01CF800E049
:101570008BEA0E0B02F800B0401C8842F4D300BF87
:101580002068401B2060A8EB0508019828440190C2
:1015900002982844029000BFB8F1000FCDD1BDE8F9
:1015A000FE8F2DE9FF4104460F46164698462068F7
:1015B000056815E02B4604F108023946684608F034
:1015C000FFFED4E9001004F108024B686946984711
:1015D0002A4604F108013046FAF7ABFF2F442E44A7
:1015E000B8F10000A8F10108E4D1BDE8FF812DE9C0
:1015F000F04104460D4616461F4625606660394692
:1016000004F108002A68FAF794FFBDE8F08170B58C
:1016100088B004460D46164600BF2868102801D041
:10162000AFF3008000BF2821204606F0E5F804A8AB
:10163000296806F0E1F804AA04A930466B689847C7
:10164000694604A800F090F96946684600F066F91A
:1016500004F10801684600F09DF96946684600F00B
:101660005DF904F11801684600F094F925606660A0
:1016700008B070BD70B504460D4600BFA06D08B936
:10168000AFF3008000BF206804F1300102682846F3
:10169000FAF74FFF70BD70B504460D461646324648
:1016A00029462046FFF7B3FF204600F001F870BD41
:1016B0001FB50446002000900190029003906B46F5
:1016C00004F12800D4E90012FFF791FF102104F182
:1016D000400006F091F8002020656065A0651FBD00
:1016E0002DE9F04786B004460E4615461F46206891
:1016F000D0F80080DFF880904FF0000ABFB100BF43
:10170000A06D08B1AFF3008000BF0120A06594F880
:101710005000284400F00F0038B91DB9206D08B9F9
:10172000606D10B1DFF8549001E04FF0010A1248EB
:101730003346424604F15001CDE90294CDE9005010
:1017400004F14000FFF74FFEBAF1000F11D00C4931
:10175000206DA8EB00000022CDE901208023CDE917
:1017600003140092424604F1500104F14000FFF7D7
:10177000C2FD06B0BDE8F0870F1C0200811C02000C
:10178000971C02002DE9FF4104460D4616461F46F0
:101790000748CDE90067CDE9020420682B4604F133
:1017A0002801026804F11800FFF79FFEBDE8FF81E1
:1017B000172402002DE9F04104460D4616461F4647
:1017C00034212046FAF7CEFE0020E062286820632C
:1017D000256066600020A062394604F108002A688E
:1017E000FAF7A7FEBDE8F081F0B5DBB007460D467D
:1017F0001646002403E0285D0DF80400641C202C2C
:10180000F9DB9DF8000000F0F8008DF800009DF86D
:101810001F0000F07F008DF81F009DF81F0040F0B2
:1018200040008DF81F00314646A803F0A5FF46ABE7
:101830006A461CA932A800F0EDFA1CA908A800F01D
:10184000F5FC08AA32A91CA804F08AFA1CA938469B
:1018500003F0B2FD5BB0F0BD30B589B004460D4673
:101860001C2102A8FAF77EFE04480068019001AA34
:1018700029462046FFF7B8FF09B030BD10A5020089
:101880002DE9F04FB1B004460D4616469846DDE905
:101890003BABDDF8E890409F2A4621460EA8FFF7B3
:1018A000FAFE2DA800905A4600210EA83D9B00F09C
:1018B0007BF929A853464A46012100900EA800F062
:1018C00073F92DAB2A46214601A8FFF773FF434663
:1018D000314601A83E9AFFF755FF25A843460090E0
:1018E00002210EA83E9A00F05FF900BF2068B842BE
:1018F00001D2AFF3008000BF00200AE02DA9095CEF
:1019000025AA125C514029AA125C51403F9A1154F9
:10191000401CB842F2D331B0BDE8F08FF8B50646AE
:101920000D4610A0006800900027F46847EA4400C4
:10193000E860E70FB46847EA4400A860E70F7468FE
:1019400047EA44006860E70F346847EA44002860CB
:10195000E70F02226946384607F0E5FAE968484091
:10196000E860F8BD0087000070B505460C462846C3
:1019700006F0BAFF2060281D06F0B6FF606005F192
:10198000080006F0B1FFA06005F10C0006F0ACFF06
:10199000E06070BD70B504460D462946206808F029
:1019A000F9FC291D606808F0F5FC05F10801A06844
:1019B00008F0F0FC05F10C01E06808F0EBFC70BDEC
:1019C0004FF0FF31054A42F82010082804DBFF23BE
:1019D000A0F1080150325354704700002428002021
:1019E0000146024850F821007047000024280020DA
:1019F0002DE9F04F03460C464FF0FF390AB10020A5
:101A000000E0082084460AB1082000E00C2080464F
:101A1000614624E0154850F82100401CF0B91D46ED
:101A20000846274616464FFA80FBDFF840A00AF129
:101A3000300A0AF805B0DFF834A04AF820704EB931
:101A40004FFA85FBA0F1080ADFF820E00EF1500EF6
:101A50000EF80AB000BF4FFA81F902E0491C414577
:101A6000D8D300BF4846BDE8F08F000024280020EE
:101A70000146014840567047542800202DE9F84F90
:101A80003A48007800EB80013848001D00EB8104E3
:101A9000E668A06800EB4000354901EB8000B0F833
:101AA0000890A06800EB400001EB8000B0F80AA0AD
:101AB000A06800EB400001EB80004068009006F059
:101AC00038FCB6FBF0F100FB116008B9012000E022
:101AD00000208046009809FB0A0760883044A188EE
:101AE0004518002023490860B8F1000F04D006F023
:101AF00020FC6188884209D0B8F1000F03D0BD42B4
:101B000001D1A08810B1A068032809D106F011FC0A
:101B1000B6FBF0F018490860032007F0B3FB22E0A1
:101B200006F007FCA1883144B1FBF0F200FB121073
:101B300080081249086006F0FCFBB5FBF0F100FBE1
:101B4000115008B9012000E000208346BD4206D0B4
:101B5000BBF1000F03D1B9B2A8B207F0ADFE02206D
:101B600007F090FB00BFBDE8F88F00009C28002024
:101B700068290020482000204C200020442000201C
:101B800010B50848007800EB80010648001D00EB06
:101B900081042078042802D000F0F2F901E007F077
:101BA0009BFD10BD9C2800202DE9FF4706460F46EF
:101BB00090461D46DDF830903068046800BF0CB9CF
:101BC000AFF3008000BF21466846FAF7CBFC601EE9
:101BD0000DF800703046FFF76BFD65B1002322461B
:101BE00069463046FFF77CFD01232A4641463046D0
:101BF000FFF776FD05E00123224669463046FFF7F0
:101C00006FFD49463046FFF735FDBDE8FF877FB5DC
:101C100004460E46254601236A46314605F1280052
:101C2000FFF7BFFC2968686D0968084468657FBDD7
:101C30002DE9F04188B004460D46164604A92B460E
:101C4000374620680268002008E013F800C017F843
:101C500000808CEA080C01F800C0401C9042F4D3CC
:101C600000BF01236A4604A904F12800FFF799FC8C
:101C70002168606D09680844606508B0BDE8F081BE
:101C800070B504460E46254605F108023146284641
:101C9000FFF7CEFF70BD70B504460E46254605F130
:101CA000180231462846FFF7C3FF70BD10B50F4834
:101CB000007800EB80010D48001D00EB8104608876
:101CC0000B4908602078012804D0032805D0042897
:101CD00009D105E007F000FD06E0FFF7CFFE03E0C5
:101CE00008F028FA00E000BF00BF10BD9C280020CB
:101CF0005820002010B50348407808B1FFF7D6FF00
:101D000010BD00009C280020002200EB8003114938
:101D100001F8232000EB800301EB83014A800222BB
:101D200000EB80030B4901EB83018A60002200EB8A
:101D30008003084901EB8301CA6000EB8003054979
:101D400001EB83010A6100EB8003024901EB83018F
:101D50008A807047A02800202DE9F04706460F46EC
:101D600090469946DDF820A0204840780A2839D0CE
:101D70001E4800781D49497844180A2C00D30A3CB3
:101D800004EB84011948001D00F8216004EB840174
:101D900000EB8100C0F8108004EB84011348001DA3
:101DA00000EB8100D7E90012C0E9021204EB8401C4
